{
  "contractName": "Counter",
  "abi": [
    {
      "constant": true,
      "inputs": [],
      "name": "counts",
      "outputs": [
        {
          "name": "",
          "type": "uint8"
        }
      ],
      "payable": false,
      "stateMutability": "view",
      "type": "function"
    },
    {
      "inputs": [],
      "payable": false,
      "stateMutability": "view",
      "type": "function",
      "constant": true,
      "name": "getCounts",
      "outputs": [
        {
          "name": "",
          "type": "uint8"
        }
      ]
    },
    {
      "constant": false,
      "inputs": [],
      "name": "increment",
      "outputs": [
        {
          "name": "",
          "type": "uint8"
        }
      ],
      "payable": false,
      "stateMutability": "nonpayable",
      "type": "function"
    },
    {
      "constant": false,
      "inputs": [],
      "name": "decrement",
      "outputs": [],
      "payable": false,
      "stateMutability": "nonpayable",
      "type": "function"
    },
    {
      "constant": false,
      "inputs": [],
      "name": "decrement",
      "outputs": [],
      "payable": false,
      "stateMutability": "nonpayable",
      "type": "function"
    }
  ],
  "bytecode": "0x608060405234801561001057600080fd5b506101a9806100206000396000f3fe608060405260043610610062576000357c0100000000000000000000000000000000000000000000000000000000900463ffffffff1680632baeceb714610067578063817cc1ea1461007e578063a5373899146100af578063d09de08a146100e0575b600080fd5b34801561007357600080fd5b5061007c6100f7565b005b34801561008a57600080fd5b50610093610126565b604051808260ff1660ff16815260200191505060405180910390f35b3480156100bb57600080fd5b506100c4610138565b604051808260ff1660ff16815260200191505060405180910390f35b3480156100ec57600080fd5b506100f561014e565b005b60016000808282829054906101000a900460ff160392506101000a81548160ff021916908360ff160217905550565b6000809054906101000a900460ff1681565b60008060009054906101000a900460ff16905090565b60016000808282829054906101000a900460ff160192506101000a81548160ff021916908360ff16021790555056fea165627a7a7230582030967f8b7586966dc1b490cb75a116a673ed8a95191109ef4a87a887fffeff930029",
  "source": "pragma solidity ^0.5.0;\r\n\r\ncontract Counter {\r\n\r\n  uint8 public counts;\r\n\r\n  // constructor () public { }\r\n\r\n  function getCounts() public view returns (uint8) {\r\n    return counts;\r\n  }\r\n\r\n  function increment() public {\r\n    counts += 1;\r\n  }\r\n\r\n  function decrement() public {\r\n    counts -= 1;\r\n  }\r\n\r\n}",
  "sourcePath": "D:/BlockChain/dapp/contracts/Counter.sol",
  "compiler": {
    "name": "solc",
    "version": "0.5.0+commit.1d4f565a.Emscripten.clang"
  },
  "schemaVersion": "3.0.9",
  "updatedAt": "2019-06-08T08:22:12.567Z",
  "devdoc": {
    "methods": {}
  },
  "userdoc": {
    "methods": {}
  }
}